:100000000C942A000C943C000C943C000C943C0092
:100010000C943C000C943C000C943C000C943C0070
:100020000C943C000C943C000C943C000C943C0060
:100030000C943C000C943C000C943C000C943C0050
:100040000C943C000C943C000C943C000C943C0040
:100050000C943C0011241FBECFE5D8E0DEBFCDBF1D
:1000600010E0A0E6B0E001C01D92AA36B107E1F7AA
:100070000E947D070C94B6070C940000DF93CF9389
:10008000CDB7DEB72A970FB6F894DEBF0FBECDBF4F
:1000900089836A834B838A81883018F02FEF2A87FF
:1000A000D1C18B81813009F07BC08981282F30E05C
:1000B00039872887888599858230910569F1288557
:1000C00039852330310534F488859985813091054F
:1000D00069F063C0288539852330310591F1888521
:1000E00099858430910509F442C057C0AAE3B0E075
:1000F000EAE3F0E08081482F8A81282F30E081E018
:1001000090E0022E02C0880F991F0A94E2F7842B18
:100110008C9391E09A8796C1A7E3B0E0E7E3F0E023
:100120008081482F8A81282F30E081E090E002C052
:10013000880F991F2A95E2F7842B8C9321E02A8758
:1001400081C1A4E3B0E0E4E3F0E08081482F8A813C
:10015000282F30E081E090E0022E02C0880F991F26
:100160000A94E2F7842B8C9331E03A876BC1A1E3C8
:10017000B0E0E1E3F0E08081482F8A81282F30E071
:1001800081E090E0022E02C0880F991F0A94E2F7E6
:10019000842B8C9381E08A8755C19EEF9A8752C148
:1001A0008B81882309F07FC08981282F30E03F832D
:1001B0002E838E819F818230910571F12E813F8146
:1001C0002330310534F48E819F818130910569F0AF
:1001D00067C02E813F8123303105A1F18E819F813F
:1001E0008430910509F445C05BC0AAE3B0E0EAE3BE
:1001F000F0E08081482F8A81282F30E081E090E074
:10020000022E02C0880F991F0A94E2F7809584237A
:100210008C9391E09A8716C1A7E3B0E0E7E3F0E0A2
:100220008081482F8A81282F30E081E090E002C051
:10023000880F991F2A95E2F7809584238C9321E0FB
:100240002A8700C1A4E3B0E0E4E3F0E08081482F16
:100250008A81282F30E081E090E0022E02C0880FD2
:10026000991F0A94E2F7809584238C9331E03A87B2
:10027000E9C0A1E3B0E0E1E3F0E08081482F8A81AA
:10028000282F30E081E090E0022E02C0880F991FF5
:100290000A94E2F7809584238C9381E08A87D2C008
:1002A0009EEF9A87CFC08B81823009F0C9C08981C7
:1002B000282F30E03D832C838C819D8182309105F5
:1002C00009F441C02C813D812330310534F48C8107
:1002D0009D818130910571F0B0C02C813D8123302A
:1002E000310509F458C08C819D818430910509F451
:1002F0007BC0A3C0AAE3B0E0EAE3F0E08081482F2E
:100300008A81282F30E081E090E002C0880F991F99
:100310002A95E2F7809584238C93ABE3B0E0EBE37E
:10032000F0E08081482F8A81282F30E081E090E042
:10033000022E02C0880F991F0A94E2F7842B8C9337
:1003400091E09A877FC0A7E3B0E0E7E3F0E0808127
:10035000482F8A81282F30E081E090E002C0880F8A
:10036000991F2A95E2F7809584238C93A8E3B0E047
:10037000E8E3F0E08081482F8A81282F30E081E097
:1003800090E002C0880F991F2A95E2F7842B8C9386
:1003900021E02A8757C0A4E3B0E0E4E3F0E08081E5
:1003A000482F8A81282F30E081E090E002C0880F3A
:1003B000991F2A95E2F7809584238C93A5E3B0E0FA
:1003C000E5E3F0E08081482F8A81282F30E081E04A
:1003D00090E0022E02C0880F991F0A94E2F7842B46
:1003E0008C9331E03A872EC0A1E3B0E0E1E3F0E086
:1003F0008081482F8A81282F30E081E090E002C080
:10040000880F991F2A95E2F7809584238C93A2E3A5
:10041000B0E0E2E3F0E08081482F8A81282F30E0CD
:1004200081E090E0022E02C0880F991F0A94E2F743
:10043000842B8C9381E08A8705C09EEF9A8702C047
:100440002DEF2A878A852A960FB6F894DEBF0FBE55
:10045000CDBFCF91DF910895DF93CF9300D000D02F
:100460000F92CDB7DEB789836A838981282F30E068
:100470003D832C838C819D818230910569F12C8193
:100480003D812330310534F48C819D81813091058B
:1004900069F064C02C813D812330310599F18C8154
:1004A0009D818430910509F443C058C08A81813010
:1004B00039F4EAE3F0E08FEF808391E09B8350C052
:1004C0008A81882331F4EAE3F0E0108221E02B8373
:1004D00047C03FEF3B8344C08A81813039F4E7E372
:1004E000F0E08FEF808381E08B833AC08A8188239C
:1004F00031F4E7E3F0E0108291E09B8331C02FEF0D
:100500002B832EC08A81813039F4E4E3F0E08FEF51
:10051000808331E03B8324C08A81882331F4E4E383
:10052000F0E0108281E08B831BC09FEF9B8318C09B
:100530008A81813039F4E1E3F0E08FEF808321E0BC
:100540002B830EC08A81882331F4E1E3F0E010822E
:1005500031E03B8305C08FEF8B8302C09FEF9B830D
:100560008B810F900F900F900F900F90CF91DF9194
:100570000895DF93CF93CDB7DEB728970FB6F894E1
:10058000DEBF0FBECDBF89836A834B838A818830EB
:1005900018F02FEF288704C18B81813009F07BC0D0
:1005A0008981282F30E03F832E838E819F81823086
:1005B000910569F12E813F812330310534F48E811C
:1005C0009F818130910569F063C02E813F81233086
:1005D000310591F18E819F818430910509F442C0EB
:1005E00057C0ABE3B0E0EBE3F0E08081482F8A81B5
:1005F000282F30E081E090E0022E02C0880F991F82
:100600000A94E2F7842B8C9391E09887C9C0A8E301
:10061000B0E0E8E3F0E08081482F8A81282F30E0C5
:1006200081E090E002C0880F991F2A95E2F7842BA1
:100630008C9321E02887B4C0A5E3B0E0E5E3F0E0C7
:100640008081482F8A81282F30E081E090E0022EBF
:1006500002C0880F991F0A94E2F7842B8C9331E033
:1006600038879EC0A2E3B0E0E2E3F0E08081482F4B
:100670008A81282F30E081E090E0022E02C0880FAE
:10068000991F0A94E2F7842B8C9381E0888788C0B5
:100690009EEF988785C08B81882309F07FC0898170
:1006A000282F30E03D832C838C819D818230910501
:1006B00071F12C813D812330310534F48C819D8191
:1006C0008130910569F067C02C813D81233031056F
:1006D000A1F18C819D818430910509F445C05BC0F6
:1006E000ABE3B0E0EBE3F0E08081482F8A81282F74
:1006F00030E081E090E0022E02C0880F991F0A943A
:10070000E2F7809584238C9391E0988749C0A8E311
:10071000B0E0E8E3F0E08081482F8A81282F30E0C4
:1007200081E090E002C0880F991F2A95E2F780953A
:1007300084238C9321E0288733C0A5E3B0E0E5E370
:10074000F0E08081482F8A81282F30E081E090E01E
:10075000022E02C0880F991F0A94E2F78095842325
:100760008C9331E038871CC0A2E3B0E0E2E3F0E014
:100770008081482F8A81282F30E081E090E0022E8E
:1007800002C0880F991F0A94E2F7809584238C9306
:1007900081E0888705C09EEF988702C02DEF2887EB
:1007A000888528960FB6F894DEBF0FBECDBFCF91D7
:1007B000DF910895DF93CF9300D000D00F92CDB793
:1007C000DEB789836A838981282F30E03D832C83BB
:1007D0008C819D8182309105E9F02C813D8123300F
:1007E000310534F48C819D818130910561F027C001
:1007F0002C813D8123303105A1F08C819D81843095
:100800009105B1F01CC0EBE3F0E08A81808391E0B8
:100810009B8317C0E8E3F0E08A81808321E02B838B
:1008200010C0E5E3F0E08A81808331E03B8309C0BA
:10083000E2E3F0E08A81808381E08B8302C09FEF56
:100840009B838B810F900F900F900F900F90CF9103
:10085000DF910895DF93CF93CDB7DEB727970FB61B
:10086000F894DEBF0FBECDBF89836A835C834B8360
:100870008A81883018F02FEF2F837BC08981482F21
:1008800050E05E834D838D819E818230910569F1B8
:100890002D813E812330310534F44D815E8141301C
:1008A000510569F064C08D819E818330910599F175
:1008B0002D813E812430310509F443C058C0E9E35D
:1008C000F0E08081282F30E08A81882F90E0A90114
:1008D00002C0559547958A95E2F7CA018170EB8170
:1008E000FC81808351E05F8344C0E6E3F0E08081D7
:1008F000282F30E08A81882F90E0A90102C0559509
:1009000047958A95E2F7CA018170EB81FC8180836B
:1009100051E05F832EC0E3E3F0E08081282F30E0D8
:100920008A81882F90E0A90102C0559547958A9544
:10093000E2F7CA018170EB81FC81808351E05F8323
:1009400018C0E0E3F0E08081282F30E08A81882F12
:1009500090E0A90102C0559547958A95E2F7CA0132
:100960008170EB81FC81808351E05F8302C08EEF58
:100970008F838F8127960FB6F894DEBF0FBECDBF51
:10098000CF91DF910895DF93CF9300D000D00F92E5
:10099000CDB7DEB789836A838A81883018F02FEF5C
:1009A0002D837AC08981282F30E03C832B838B8173
:1009B0009C818230910569F12B813C812330310586
:1009C00034F48B819C818130910569F063C02B8167
:1009D0003C812330310591F18B819C8184309105DC
:1009E00009F442C057C0ABE3B0E0EBE3F0E0808134
:1009F000482F8A81282F30E081E090E0022E02C04B
:100A0000880F991F0A94E2F784278C9391E09D83C5
:100A100043C0A8E3B0E0E8E3F0E08081482F8A819A
:100A2000282F30E081E090E002C0880F991F2A95BE
:100A3000E2F784278C9321E02D832EC0A5E3B0E05C
:100A4000E5E3F0E08081482F8A81282F30E081E0C3
:100A500090E0022E02C0880F991F0A94E2F78427C3
:100A60008C9331E03D8318C0A2E3B0E0E2E3F0E014
:100A70008081482F8A81282F30E081E090E0022E8B
:100A800002C0880F991F0A94E2F784278C9381E0B3
:100A90008D8302C09EEF9D838D810F900F900F90EC
:100AA0000F900F90CF91DF910895DF93CF9300D0F7
:100AB0000F92CDB7DEB789836A838A81883018F0B8
:100AC0008FEF8B8307C089816A8141E00E943E00DD
:100AD00081E08B838B810F900F900F90CF91DF91EE
:100AE0000895DF93CF9300D00F92CDB7DEB78983FF
:100AF0006A838A81883018F08FEF8B8307C08981E1
:100B00006A8141E00E94B90281E08B838B810F9062
:100B10000F900F90CF91DF910895DF93CF9300D086
:100B20000F92CDB7DEB789836A838A81883018F047
:100B30008FEF8B8307C089816A8140E00E94B902F0
:100B400081E08B838B810F900F900F90CF91DF917D
:100B50000895DF93CF9300D00F92CDB7DEB789838E
:100B60006A838A81883018F08FEF8B8306C0898171
:100B70006A810E94C30481E08B838B810F900F9068
:100B80000F90CF91DF910895DF93CF9300D000D0E5
:100B900000D0CDB7DEB789836A834B838A818830E2
:100BA00018F02FEF2E8353C08981282F30E03D832A
:100BB0002C838C819D8182309105E1F02C813D81D7
:100BC0002330310534F48C819D818130910561F0B1
:100BD00023C02C813D812330310591F08C819D8192
:100BE0008430910599F018C081E06A8140E00E944C
:100BF0003E0015C082E06A8140E00E943E000FC0C6
:100C000083E06A8140E00E943E0009C084E06A817E
:100C100040E00E943E0003C09FEF9E8318C08B817E
:100C2000813041F489816A8140E00E94B90221E06B
:100C30002E830DC08B81823041F489816A8141E02D
:100C40000E94B90231E03E8302C08FEF8E838E8115
:100C500026960FB6F894DEBF0FBECDBFCF91DF91C1
:100C60000895DF93CF93CDB7DEB727970FB6F894EB
:100C7000DEBF0FBECDBF89836A835C834B838A81CD
:100C8000883018F02FEF2F834CC08981282F30E057
:100C90003E832D838D819E8182309105F1F02D81DF
:100CA0003E812330310534F48D819E818130910560
:100CB00061F02BC02D813E8123303105B1F08D8153
:100CC0009E8184309105C9F020C02B813C8181E058
:100CD0006A81A9010E942A041BC02B813C8182E009
:100CE0006A81A9010E942A0413C02B813C8183E000
:100CF0006A81A9010E942A040BC02B813C8184E0F7
:100D00006A81A9010E942A0403C09FEF9F8309C042
:100D10002B813C8189816A81A9010E949B0621E087
:100D20002F838F8127960FB6F894DEBF0FBECDBFFD
:100D3000CF91DF910895DF93CF93CDB7DEB728979A
:100D40000FB6F894DEBF0FBECDBF8A836B835D8381
:100D50004C838B81883018F02FEF2887C4C029E698
:100D600030E08A816B81A9010E942A048A816B810B
:100D70009E012F5F3F4FA9010E942A0480916900C4
:100D8000282F30E03F832E838E819F818130910513
:100D9000D9F02E813F812230310549F18E819F812A
:100DA000009709F099C0109260008A816B819E01C2
:100DB0002F5F3F4FA9010E942A04813009F08CC0A7
:100DC00082E08093690088C08A816B819E012F5FD9
:100DD0003F4FA9010E942A0481E08093600089812D
:100DE000882309F079C082E08093690075C08A8108
:100DF0006B819E012F5F3F4FA9010E942A048981C8
:100E00008130E1F48091650090916600A0916700C7
:100E1000B09168000196A11DB11D8093650090936B
:100E20006600A0936700B093680010926100109272
:100E3000620010926300109264001EC089818823B2
:100E4000D9F48091610090916200A0916300B0910B
:100E500064000196A11DB11D809361009093620012
:100E6000A0936300B0936400109265001092660036
:100E70001092670010926800809165009091660062
:100E8000A0916700B091680084369105A105B10575
:100E900061F481E080936900109265001092660011
:100EA000109267001092680017C0809161009091C5
:100EB0006200A0916300B091640084369105A105A1
:100EC000B10551F410926900109261001092620015
:100ED000109263001092640080916000EC81FD81AB
:100EE000808391E09887888528960FB6F894DEBFB6
:100EF0000FBECDBFCF91DF910895DF93CF930F92B7
:100F0000CDB7DEB7198282E064E00E94550582E029
:100F100065E00E94550582E064E00E94710583E06F
:100F200064E041E00E94C40582E062E041E00E948A
:100F3000C40582E062E09E012F5F3F4FA9010E943D
:100F400031060CC082E065E00E94710582E062E03B
:100F50009E012F5F3F4FA9010E943106898188239E
:100F600089F782E065E00E948D05E3CFF894FFCF1A
:00000001FF
