:100000000C942A000C943C000C943C000C943C0092
:100010000C943C000C943C000C943C000C943C0070
:100020000C943C000C943C000C943C000C943C0060
:100030000C943C000C943C000C943C000C943C0050
:100040000C943C000C943C000C943C000C943C0040
:100050000C943C0011241FBECFE5D8E0DEBFCDBF1D
:1000600010E0A0E6B0E001C01D92AA36B107E1F7AA
:100070000E94F3070C941F080C940000DF93CF93A9
:10008000CDB7DEB72A970FB6F894DEBF0FBECDBF4F
:1000900089836A834B838A81883018F02FEF2A87FF
:1000A000D1C18B81813009F07BC08981282F30E05C
:1000B00039872887888599858230910569F1288557
:1000C00039852330310534F488859985813091054F
:1000D00069F063C0288539852330310591F1888521
:1000E00099858430910509F442C057C0AAE3B0E075
:1000F000EAE3F0E08081482F8A81282F30E081E018
:1001000090E0022E02C0880F991F0A94E2F7842B18
:100110008C9391E09A8796C1A7E3B0E0E7E3F0E023
:100120008081482F8A81282F30E081E090E002C052
:10013000880F991F2A95E2F7842B8C9321E02A8758
:1001400081C1A4E3B0E0E4E3F0E08081482F8A813C
:10015000282F30E081E090E0022E02C0880F991F26
:100160000A94E2F7842B8C9331E03A876BC1A1E3C8
:10017000B0E0E1E3F0E08081482F8A81282F30E071
:1001800081E090E0022E02C0880F991F0A94E2F7E6
:10019000842B8C9381E08A8755C19EEF9A8752C148
:1001A0008B81882309F07FC08981282F30E03F832D
:1001B0002E838E819F818230910571F12E813F8146
:1001C0002330310534F48E819F818130910569F0AF
:1001D00067C02E813F8123303105A1F18E819F813F
:1001E0008430910509F445C05BC0AAE3B0E0EAE3BE
:1001F000F0E08081482F8A81282F30E081E090E074
:10020000022E02C0880F991F0A94E2F7809584237A
:100210008C9391E09A8716C1A7E3B0E0E7E3F0E0A2
:100220008081482F8A81282F30E081E090E002C051
:10023000880F991F2A95E2F7809584238C9321E0FB
:100240002A8700C1A4E3B0E0E4E3F0E08081482F16
:100250008A81282F30E081E090E0022E02C0880FD2
:10026000991F0A94E2F7809584238C9331E03A87B2
:10027000E9C0A1E3B0E0E1E3F0E08081482F8A81AA
:10028000282F30E081E090E0022E02C0880F991FF5
:100290000A94E2F7809584238C9381E08A87D2C008
:1002A0009EEF9A87CFC08B81823009F0C9C08981C7
:1002B000282F30E03D832C838C819D8182309105F5
:1002C00009F441C02C813D812330310534F48C8107
:1002D0009D818130910571F0B0C02C813D8123302A
:1002E000310509F458C08C819D818430910509F451
:1002F0007BC0A3C0AAE3B0E0EAE3F0E08081482F2E
:100300008A81282F30E081E090E002C0880F991F99
:100310002A95E2F7809584238C93ABE3B0E0EBE37E
:10032000F0E08081482F8A81282F30E081E090E042
:10033000022E02C0880F991F0A94E2F7842B8C9337
:1003400091E09A877FC0A7E3B0E0E7E3F0E0808127
:10035000482F8A81282F30E081E090E002C0880F8A
:10036000991F2A95E2F7809584238C93A8E3B0E047
:10037000E8E3F0E08081482F8A81282F30E081E097
:1003800090E002C0880F991F2A95E2F7842B8C9386
:1003900021E02A8757C0A4E3B0E0E4E3F0E08081E5
:1003A000482F8A81282F30E081E090E002C0880F3A
:1003B000991F2A95E2F7809584238C93A5E3B0E0FA
:1003C000E5E3F0E08081482F8A81282F30E081E04A
:1003D00090E0022E02C0880F991F0A94E2F7842B46
:1003E0008C9331E03A872EC0A1E3B0E0E1E3F0E086
:1003F0008081482F8A81282F30E081E090E002C080
:10040000880F991F2A95E2F7809584238C93A2E3A5
:10041000B0E0E2E3F0E08081482F8A81282F30E0CD
:1004200081E090E0022E02C0880F991F0A94E2F743
:10043000842B8C9381E08A8705C09EEF9A8702C047
:100440002DEF2A878A852A960FB6F894DEBF0FBE55
:10045000CDBFCF91DF910895DF93CF9300D000D02F
:100460000F92CDB7DEB789836A838981282F30E068
:100470003D832C838C819D818230910569F12C8193
:100480003D812330310534F48C819D81813091058B
:1004900069F064C02C813D812330310599F18C8154
:1004A0009D818430910509F443C058C08A81813010
:1004B00039F4EAE3F0E08FEF808391E09B8350C052
:1004C0008A81882331F4EAE3F0E0108221E02B8373
:1004D00047C03FEF3B8344C08A81813039F4E7E372
:1004E000F0E08FEF808381E08B833AC08A8188239C
:1004F00031F4E7E3F0E0108291E09B8331C02FEF0D
:100500002B832EC08A81813039F4E4E3F0E08FEF51
:10051000808331E03B8324C08A81882331F4E4E383
:10052000F0E0108281E08B831BC09FEF9B8318C09B
:100530008A81813039F4E1E3F0E08FEF808321E0BC
:100540002B830EC08A81882331F4E1E3F0E010822E
:1005500031E03B8305C08FEF8B8302C09FEF9B830D
:100560008B810F900F900F900F900F90CF91DF9194
:100570000895DF93CF93CDB7DEB728970FB6F894E1
:10058000DEBF0FBECDBF89836A834B838A818830EB
:1005900018F02FEF288704C18B81813009F07BC0D0
:1005A0008981282F30E03F832E838E819F81823086
:1005B000910569F12E813F812330310534F48E811C
:1005C0009F818130910569F063C02E813F81233086
:1005D000310591F18E819F818430910509F442C0EB
:1005E00057C0ABE3B0E0EBE3F0E08081482F8A81B5
:1005F000282F30E081E090E0022E02C0880F991F82
:100600000A94E2F7842B8C9391E09887C9C0A8E301
:10061000B0E0E8E3F0E08081482F8A81282F30E0C5
:1006200081E090E002C0880F991F2A95E2F7842BA1
:100630008C9321E02887B4C0A5E3B0E0E5E3F0E0C7
:100640008081482F8A81282F30E081E090E0022EBF
:1006500002C0880F991F0A94E2F7842B8C9331E033
:1006600038879EC0A2E3B0E0E2E3F0E08081482F4B
:100670008A81282F30E081E090E0022E02C0880FAE
:10068000991F0A94E2F7842B8C9381E0888788C0B5
:100690009EEF988785C08B81882309F07FC0898170
:1006A000282F30E03D832C838C819D818230910501
:1006B00071F12C813D812330310534F48C819D8191
:1006C0008130910569F067C02C813D81233031056F
:1006D000A1F18C819D818430910509F445C05BC0F6
:1006E000ABE3B0E0EBE3F0E08081482F8A81282F74
:1006F00030E081E090E0022E02C0880F991F0A943A
:10070000E2F7809584238C9391E0988749C0A8E311
:10071000B0E0E8E3F0E08081482F8A81282F30E0C4
:1007200081E090E002C0880F991F2A95E2F780953A
:1007300084238C9321E0288733C0A5E3B0E0E5E370
:10074000F0E08081482F8A81282F30E081E090E01E
:10075000022E02C0880F991F0A94E2F78095842325
:100760008C9331E038871CC0A2E3B0E0E2E3F0E014
:100770008081482F8A81282F30E081E090E0022E8E
:1007800002C0880F991F0A94E2F7809584238C9306
:1007900081E0888705C09EEF988702C02DEF2887EB
:1007A000888528960FB6F894DEBF0FBECDBFCF91D7
:1007B000DF910895DF93CF9300D000D00F92CDB793
:1007C000DEB789836A838981282F30E03D832C83BB
:1007D0008C819D8182309105E9F02C813D8123300F
:1007E000310534F48C819D818130910561F027C001
:1007F0002C813D8123303105A1F08C819D81843095
:100800009105B1F01CC0EBE3F0E08A81808391E0B8
:100810009B8317C0E8E3F0E08A81808321E02B838B
:1008200010C0E5E3F0E08A81808331E03B8309C0BA
:10083000E2E3F0E08A81808381E08B8302C09FEF56
:100840009B838B810F900F900F900F900F90CF9103
:10085000DF910895DF93CF93CDB7DEB727970FB61B
:10086000F894DEBF0FBECDBF89836A835C834B8360
:100870008A81883018F02FEF2F837BC08981482F21
:1008800050E05E834D838D819E818230910569F1B8
:100890002D813E812330310534F44D815E8141301C
:1008A000510569F064C08D819E818330910599F175
:1008B0002D813E812430310509F443C058C0E9E35D
:1008C000F0E08081282F30E08A81882F90E0A90114
:1008D00002C0559547958A95E2F7CA018170EB8170
:1008E000FC81808351E05F8344C0E6E3F0E08081D7
:1008F000282F30E08A81882F90E0A90102C0559509
:1009000047958A95E2F7CA018170EB81FC8180836B
:1009100051E05F832EC0E3E3F0E08081282F30E0D8
:100920008A81882F90E0A90102C0559547958A9544
:10093000E2F7CA018170EB81FC81808351E05F8323
:1009400018C0E0E3F0E08081282F30E08A81882F12
:1009500090E0A90102C0559547958A95E2F7CA0132
:100960008170EB81FC81808351E05F8302C08EEF58
:100970008F838F8127960FB6F894DEBF0FBECDBF51
:10098000CF91DF910895DF93CF9300D000D00F92E5
:10099000CDB7DEB789836A838A81883018F02FEF5C
:1009A0002D837AC08981282F30E03C832B838B8173
:1009B0009C818230910569F12B813C812330310586
:1009C00034F48B819C818130910569F063C02B8167
:1009D0003C812330310591F18B819C8184309105DC
:1009E00009F442C057C0ABE3B0E0EBE3F0E0808134
:1009F000482F8A81282F30E081E090E0022E02C04B
:100A0000880F991F0A94E2F784278C9391E09D83C5
:100A100043C0A8E3B0E0E8E3F0E08081482F8A819A
:100A2000282F30E081E090E002C0880F991F2A95BE
:100A3000E2F784278C9321E02D832EC0A5E3B0E05C
:100A4000E5E3F0E08081482F8A81282F30E081E0C3
:100A500090E0022E02C0880F991F0A94E2F78427C3
:100A60008C9331E03D8318C0A2E3B0E0E2E3F0E014
:100A70008081482F8A81282F30E081E090E0022E8B
:100A800002C0880F991F0A94E2F784278C9381E0B3
:100A90008D8302C09EEF9D838D810F900F900F90EC
:100AA0000F900F90CF91DF910895DF93CF9300D0F7
:100AB00000D0CDB7DEB789838981282F30E03C8311
:100AC0002B838B819C8181309105E9F02B813C81C6
:100AD000223031052CF48B819C81009761F02BC072
:100AE0002B813C8122303105B1F08B819C81833098
:100AF0009105C9F020C082E064E041E00E943E0020
:100B000091E09A8319C082E065E041E00E943E00D6
:100B100021E02A8311C082E066E041E00E943E00AD
:100B200031E03A8309C082E067E041E00E943E0084
:100B300081E08A8301C01A828A810F900F900F9002
:100B40000F90CF91DF910895DF93CF9300D000D025
:100B5000CDB7DEB789838981282F30E03C832B8392
:100B60008B819C8181309105E9F02B813C81223081
:100B700031052CF48B819C81009761F02BC02B8177
:100B80003C8122303105B1F08B819C81833091050D
:100B9000C9F020C082E064E041E00E94B90291E027
:100BA0009A8319C082E065E041E00E94B90221E029
:100BB0002A8311C082E066E041E00E94B90231E080
:100BC0003A8309C082E067E041E00E94B90281E017
:100BD0008A8301C01A828A810F900F900F900F9024
:100BE000CF91DF910895DF93CF9300D000D0CDB7A0
:100BF000DEB789838981282F30E03C832B838B816A
:100C00009C8181309105E9F02B813C8122303105B6
:100C10002CF48B819C81009761F02BC02B813C814F
:100C200022303105B1F08B819C8183309105C9F070
:100C300020C082E064E040E00E94B90291E09A8323
:100C400019C082E065E040E00E94B90221E02A83F9
:100C500011C082E066E040E00E94B90231E03A83D0
:100C600009C082E067E040E00E94B90281E08A8327
:100C700001C01A828A810F900F900F900F90CF9130
:100C8000DF910895DF93CF9300D000D0CDB7DEB7CA
:100C900089838981282F30E03C832B838B819C8141
:100CA00081309105E1F02B813C81223031052CF41B
:100CB0008B819C81009761F027C02B813C81223081
:100CC0003105A1F08B819C8183309105B1F01CC06E
:100CD00082E064E00E94C30491E09A8316C082E03F
:100CE00065E00E94C30421E02A830FC082E066E031
:100CF0000E94C30431E03A8308C082E067E00E94AA
:100D0000C30481E08A8301C01A828A810F900F9008
:100D10000F900F90CF91DF910895DF93CF9300D084
:100D200000D0CDB7DEB789838981282F30E03C839E
:100D30002B838B819C81009731F02B813C8121306A
:100D4000310549F010C083E064E041E00E943E00BC
:100D500031E03A8309C082E062E041E00E943E0057
:100D600081E08A8301C01A828A810F900F900F90D0
:100D70000F90CF91DF910895DF93CF9300D000D0F3
:100D800000D0CDB7DEB789837B836A838981282F22
:100D900030E03E832D838D819E81009731F02D813F
:100DA0003E812130310549F010C02A813B8183E02A
:100DB00064E0A9010E942A040BC02A813B8182E0E1
:100DC00062E0A9010E942A0403C03FEF3C8308C0EF
:100DD0002A813B818981B9010E94FA0681E08C83D6
:100DE0008C8126960FB6F894DEBF0FBECDBFCF9193
:100DF000DF910895DF93CF93CDB7DEB72B970FB672
:100E0000F894DEBF0FBECDBF8C837E836D831A82C4
:100E100019828C81282F30E03B872A878A859B8521
:100E2000009731F02A853B852130310531F00AC029
:100E300083E08A8384E0898308C082E08A8382E039
:100E4000898303C03FEF3987C4C029E630E08A8137
:100E50006981A9010E942A049E012D5F3F4F8A816A
:100E60006981A9010E942A0480916900282F30E03D
:100E700038872F838F81988581309105D9F02F8114
:100E800038852230310549F18F819885009709F026
:100E900099C0109260009E012D5F3F4F8A81698149
:100EA000A9010E942A04813009F08CC082E080935D
:100EB000690088C09E012D5F3F4F8A816981A90129
:100EC0000E942A0481E0809360008B81882309F0CE
:100ED00079C082E08093690075C09E012D5F3F4F0D
:100EE0008A816981A9010E942A048B818130E1F401
:100EF0008091650090916600A0916700B0916800B4
:100F00000196A11DB11D8093650090936600A0938A
:100F10006700B09368001092610010926200109216
:100F20006300109264001EC08B818823D9F48091E5
:100F3000610090916200A0916300B09164000196FD
:100F4000A11DB11D8093610090936200A093630086
:100F5000B0936400109265001092660010926700D2
:100F6000109268008091650090916600A0916700E2
:100F7000B0916800883C9105A105B10561F481E05C
:100F800080936900109265001092660010926700CD
:100F90001092680017C08091610090916200A0914A
:100FA0006300B0916400883C9105A105B10551F43E
:100FB000109269001092610010926200109263001A
:100FC0001092640080916000ED81FE81808391E049
:100FD000998789852B960FB6F894DEBF0FBECDBFDB
:100FE000CF91DF910895DF93CF9300D0CDB7DEB7D7
:100FF0001A8280E00E94550581E00E94550580E03C
:101000000E94A40580E00E948D0681E00E948D066A
:1010100019829E012E5F3F4F80E0B9010E94BC06FD
:101020008A81813049F48A81813031F48981882331
:1010300019F481E00E9442068A818983EACFF894FC
:02104000FFCFE0
:00000001FF
